{
  "_format": "hh-sol-artifact-1",
  "contractName": "WavePortal",
  "sourceName": "contracts/WavePortal.sol",
  "abi": [
    {
      "inputs": [],
      "stateMutability": "nonpayable",
      "type": "constructor"
    },
    {
      "inputs": [],
      "name": "getTotalWaves",
      "outputs": [
        {
          "internalType": "uint256",
          "name": "",
          "type": "uint256"
        }
      ],
      "stateMutability": "view",
      "type": "function"
    },
    {
      "inputs": [
        {
          "internalType": "uint256",
          "name": "",
          "type": "uint256"
        }
      ],
      "name": "top10",
      "outputs": [
        {
          "internalType": "address",
          "name": "addr",
          "type": "address"
        },
        {
          "internalType": "uint256",
          "name": "waves",
          "type": "uint256"
        }
      ],
      "stateMutability": "view",
      "type": "function"
    },
    {
      "inputs": [],
      "name": "topWaver",
      "outputs": [
        {
          "internalType": "address",
          "name": "",
          "type": "address"
        }
      ],
      "stateMutability": "view",
      "type": "function"
    },
    {
      "inputs": [
        {
          "internalType": "string",
          "name": "data",
          "type": "string"
        }
      ],
      "name": "wave",
      "outputs": [],
      "stateMutability": "nonpayable",
      "type": "function"
    }
  ],
  "bytecode": "0x60806040523480156200001157600080fd5b50620000416040518060600160405280603081526020016200104d603091396200004760201b6200041e1760201c565b620001db565b620000e7816040516024016200005e919062000154565b6040516020818303038152906040527f41304fac000000000000000000000000000000000000000000000000000000007bffffffffffffffffffffffffffffffffffffffffffffffffffffffff19166020820180517bffffffffffffffffffffffffffffffffffffffffffffffffffffffff8381831617835250505050620000ea60201b60201c565b50565b60008151905060006a636f6e736f6c652e6c6f679050602083016000808483855afa5050505050565b6000620001208262000178565b6200012c818562000183565b93506200013e81856020860162000194565b6200014981620001ca565b840191505092915050565b6000602082019050818103600083015262000170818462000113565b905092915050565b600081519050919050565b600082825260208201905092915050565b60005b83811015620001b457808201518184015260208101905062000197565b83811115620001c4576000848401525b50505050565b6000601f19601f8301169050919050565b610e6280620001eb6000396000f3fe608060405234801561001057600080fd5b506004361061004c5760003560e01c80630227647414610051578063449d46c014610082578063804e2a671461009e5780639a2cdc08146100bc575b600080fd5b61006b60048036038101906100669190610a62565b6100da565b604051610079929190610afd565b60405180910390f35b61009c60048036038101906100979190610a1d565b610124565b005b6100a66102a2565b6040516100b39190610ae2565b60405180910390f35b6100c46103d3565b6040516100d19190610bfb565b60405180910390f35b600281600a81106100ea57600080fd5b600202016000915090508060000160009054906101000a900473ffffffffffffffffffffffffffffffffffffffff16908060010154905082565b60016000808282546101369190610c32565b92505081905550601682829091806001815401808255809150506001900390600052602060002001600090919290919290919290919250919061017a92919061091b565b5060018060003373ffffffffffffffffffffffffffffffffffffffff1673ffffffffffffffffffffffffffffffffffffffff16815260200190815260200160002060008282546101ca9190610c32565b9250508190555061021a33600160003373ffffffffffffffffffffffffffffffffffffffff1673ffffffffffffffffffffffffffffffffffffffff168152602001908152602001600020546104b7565b61029e6040518060400160405280601d81526020017f2573206861732077617665642068692e2e20536179696e672025732e2e0000008152503384848080601f016020809104026020016040519081016040528093929190818152602001838380828437600081840152601f19601f82011690508083019250505050505050610718565b5050565b600061036b604051806060016040528060348152602001610df96034913960026000600a81106102fb577f4e487b7100000000000000000000000000000000000000000000000000000000600052603260045260246000fd5b6002020160000160009054906101000a900473ffffffffffffffffffffffffffffffffffffffff1660026000600a811061035e577f4e487b7100000000000000000000000000000000000000000000000000000000600052603260045260246000fd5b60020201600101546107b7565b60026000600a81106103a6577f4e487b7100000000000000000000000000000000000000000000000000000000600052603260045260246000fd5b6002020160000160009054906101000a900473ffffffffffffffffffffffffffffffffffffffff16905090565b60006104166040518060400160405280601781526020017f2564206769726c7320776176656420617420796f752121000000000000000000815250600054610856565b600054905090565b6104b4816040516024016104329190610b26565b6040516020818303038152906040527f41304fac000000000000000000000000000000000000000000000000000000007bffffffffffffffffffffffffffffffffffffffffffffffffffffffff19166020820180517bffffffffffffffffffffffffffffffffffffffffffffffffffffffff83818316178352505050506108f2565b50565b60005b600a8110156105245781600282600a81106104fe577f4e487b7100000000000000000000000000000000000000000000000000000000600052603260045260246000fd5b6002020160010154101561051157610524565b808061051c90610d29565b9150506104ba565b60008190505b600981101561064257600281600a811061056d577f4e487b7100000000000000000000000000000000000000000000000000000000600052603260045260246000fd5b6002020160026001836105809190610c32565b600a81106105b7577f4e487b7100000000000000000000000000000000000000000000000000000000600052603260045260246000fd5b600202016000820160009054906101000a900473ffffffffffffffffffffffffffffffffffffffff168160000160006101000a81548173ffffffffffffffffffffffffffffffffffffffff021916908373ffffffffffffffffffffffffffffffffffffffff16021790555060018201548160010155905050808061063a90610d29565b91505061052a565b50600a8110156107135782600282600a8110610687577f4e487b7100000000000000000000000000000000000000000000000000000000600052603260045260246000fd5b6002020160000160006101000a81548173ffffffffffffffffffffffffffffffffffffffff021916908373ffffffffffffffffffffffffffffffffffffffff16021790555081600282600a8110610707577f4e487b7100000000000000000000000000000000000000000000000000000000600052603260045260246000fd5b60020201600101819055505b505050565b6107b283838360405160240161073093929190610b48565b6040516020818303038152906040527fe0e9ad4f000000000000000000000000000000000000000000000000000000007bffffffffffffffffffffffffffffffffffffffffffffffffffffffff19166020820180517bffffffffffffffffffffffffffffffffffffffffffffffffffffffff83818316178352505050506108f2565b505050565b6108518383836040516024016107cf93929190610b8d565b6040516020818303038152906040527f07c81217000000000000000000000000000000000000000000000000000000007bffffffffffffffffffffffffffffffffffffffffffffffffffffffff19166020820180517bffffffffffffffffffffffffffffffffffffffffffffffffffffffff83818316178352505050506108f2565b505050565b6108ee828260405160240161086c929190610bcb565b6040516020818303038152906040527f9710a9d0000000000000000000000000000000000000000000000000000000007bffffffffffffffffffffffffffffffffffffffffffffffffffffffff19166020820180517bffffffffffffffffffffffffffffffffffffffffffffffffffffffff83818316178352505050506108f2565b5050565b60008151905060006a636f6e736f6c652e6c6f679050602083016000808483855afa5050505050565b82805461092790610cf7565b90600052602060002090601f0160209004810192826109495760008555610990565b82601f1061096257803560ff1916838001178555610990565b82800160010185558215610990579182015b8281111561098f578235825591602001919060010190610974565b5b50905061099d91906109a1565b5090565b5b808211156109ba5760008160009055506001016109a2565b5090565b60008083601f8401126109d057600080fd5b8235905067ffffffffffffffff8111156109e957600080fd5b602083019150836001820283011115610a0157600080fd5b9250929050565b600081359050610a1781610de1565b92915050565b60008060208385031215610a3057600080fd5b600083013567ffffffffffffffff811115610a4a57600080fd5b610a56858286016109be565b92509250509250929050565b600060208284031215610a7457600080fd5b6000610a8284828501610a08565b91505092915050565b610a9481610c88565b82525050565b6000610aa582610c16565b610aaf8185610c21565b9350610abf818560208601610cc4565b610ac881610dd0565b840191505092915050565b610adc81610cba565b82525050565b6000602082019050610af76000830184610a8b565b92915050565b6000604082019050610b126000830185610a8b565b610b1f6020830184610ad3565b9392505050565b60006020820190508181036000830152610b408184610a9a565b905092915050565b60006060820190508181036000830152610b628186610a9a565b9050610b716020830185610a8b565b8181036040830152610b838184610a9a565b9050949350505050565b60006060820190508181036000830152610ba78186610a9a565b9050610bb66020830185610a8b565b610bc36040830184610ad3565b949350505050565b60006040820190508181036000830152610be58185610a9a565b9050610bf46020830184610ad3565b9392505050565b6000602082019050610c106000830184610ad3565b92915050565b600081519050919050565b600082825260208201905092915050565b6000610c3d82610cba565b9150610c4883610cba565b9250827fffffffffffffffffffffffffffffffffffffffffffffffffffffffffffffffff03821115610c7d57610c7c610d72565b5b828201905092915050565b6000610c9382610c9a565b9050919050565b600073ffffffffffffffffffffffffffffffffffffffff82169050919050565b6000819050919050565b60005b83811015610ce2578082015181840152602081019050610cc7565b83811115610cf1576000848401525b50505050565b60006002820490506001821680610d0f57607f821691505b60208210811415610d2357610d22610da1565b5b50919050565b6000610d3482610cba565b91507fffffffffffffffffffffffffffffffffffffffffffffffffffffffffffffffff821415610d6757610d66610d72565b5b600182019050919050565b7f4e487b7100000000000000000000000000000000000000000000000000000000600052601160045260246000fd5b7f4e487b7100000000000000000000000000000000000000000000000000000000600052602260045260246000fd5b6000601f19601f8301169050919050565b610dea81610cba565b8114610df557600080fd5b5056fe257320776176656420617420796f752025642074696d65732e2e2e20497320686520796f7572206265737420667269656e643f3fa264697066735822122060c06432b0ad12b4856aca8f5f9b80e81e65e23e734d343b1c323cdec0d8b91064736f6c634300080400334920616d2057617665506f7274616c2e2e2e204a75737420626f726e206173206120736d61727420636f6e7472616374",
  "linkReferences": {},
  "deployedLinkReferences": {}
}